{
  "contractName": "DodgerBox",
  "abi": [
    {
      "inputs": [],
      "name": "createNewPlayer",
      "outputs": [
        {
          "internalType": "bool",
          "name": "",
          "type": "bool"
        }
      ],
      "stateMutability": "nonpayable",
      "type": "function"
    },
    {
      "inputs": [],
      "name": "getStatus",
      "outputs": [
        {
          "internalType": "string",
          "name": "",
          "type": "string"
        }
      ],
      "stateMutability": "view",
      "type": "function",
      "constant": true
    },
    {
      "inputs": [
        {
          "internalType": "uint256",
          "name": "score",
          "type": "uint256"
        }
      ],
      "name": "updateHighScore",
      "outputs": [
        {
          "internalType": "bool",
          "name": "",
          "type": "bool"
        }
      ],
      "stateMutability": "nonpayable",
      "type": "function"
    },
    {
      "inputs": [],
      "name": "getHighScore",
      "outputs": [
        {
          "internalType": "uint256",
          "name": "",
          "type": "uint256"
        }
      ],
      "stateMutability": "view",
      "type": "function",
      "constant": true
    }
  ],
  "bytecode": "0x608060405233600260006101000a81548173ffffffffffffffffffffffffffffffffffffffff021916908373ffffffffffffffffffffffffffffffffffffffff16021790555034801561005157600080fd5b5060016000819055506108f3806100696000396000f3fe608060405234801561001057600080fd5b506004361061004c5760003560e01c80633824ea31146100515780634cd9673e1461006f5780634e69d5601461009f578063e3910d08146100bd575b600080fd5b6100596100db565b6040516100669190610626565b60405180910390f35b61008960048036038101906100849190610672565b610125565b60405161009691906106ba565b60405180910390f35b6100a76103e8565b6040516100b4919061076e565b60405180910390f35b6100c561055f565b6040516100d291906106ba565b60405180910390f35b6000600160003373ffffffffffffffffffffffffffffffffffffffff1673ffffffffffffffffffffffffffffffffffffffff16815260200190815260200160002060000154905090565b6000336000600181111561013c5761013b610790565b5b600160003373ffffffffffffffffffffffffffffffffffffffff1673ffffffffffffffffffffffffffffffffffffffff16815260200190815260200160002060010160009054906101000a900460ff16600181111561019e5761019d610790565b5b148061021c57506001808111156101b8576101b7610790565b5b600160003373ffffffffffffffffffffffffffffffffffffffff1673ffffffffffffffffffffffffffffffffffffffff16815260200190815260200160002060010160009054906101000a900460ff16600181111561021a57610219610790565b5b145b61025b576040517f08c379a00000000000000000000000000000000000000000000000000000000081526004016102529061080b565b60405180910390fd5b8280600160003373ffffffffffffffffffffffffffffffffffffffff1673ffffffffffffffffffffffffffffffffffffffff16815260200190815260200160002060000154106102e0576040517f08c379a00000000000000000000000000000000000000000000000000000000081526004016102d79061089d565b60405180910390fd5b6000600160003373ffffffffffffffffffffffffffffffffffffffff1673ffffffffffffffffffffffffffffffffffffffff1681526020019081526020016000206000015414156103965760018060003373ffffffffffffffffffffffffffffffffffffffff1673ffffffffffffffffffffffffffffffffffffffff16815260200190815260200160002060010160006101000a81548160ff021916908360018111156103905761038f610790565b5b02179055505b83600160003373ffffffffffffffffffffffffffffffffffffffff1673ffffffffffffffffffffffffffffffffffffffff16815260200190815260200160002060000181905550600192505050919050565b6060600060018111156103fe576103fd610790565b5b600160003373ffffffffffffffffffffffffffffffffffffffff1673ffffffffffffffffffffffffffffffffffffffff16815260200190815260200160002060010160009054906101000a900460ff1660018111156104605761045f610790565b5b14156104a3576040518060400160405280600381526020017f4e65770000000000000000000000000000000000000000000000000000000000815250905061055c565b6001808111156104b6576104b5610790565b5b600160003373ffffffffffffffffffffffffffffffffffffffff1673ffffffffffffffffffffffffffffffffffffffff16815260200190815260200160002060010160009054906101000a900460ff16600181111561051857610517610790565b5b141561055b576040518060400160405280600681526020017f4163746976650000000000000000000000000000000000000000000000000000815250905061055c565b5b90565b60006040518060400160405280600081526020016000600181111561058757610586610790565b5b815250600160003373ffffffffffffffffffffffffffffffffffffffff1673ffffffffffffffffffffffffffffffffffffffff1681526020019081526020016000206000820151816000015560208201518160010160006101000a81548160ff021916908360018111156105fe576105fd610790565b5b02179055509050506001905090565b6000819050919050565b6106208161060d565b82525050565b600060208201905061063b6000830184610617565b92915050565b600080fd5b61064f8161060d565b811461065a57600080fd5b50565b60008135905061066c81610646565b92915050565b60006020828403121561068857610687610641565b5b60006106968482850161065d565b91505092915050565b60008115159050919050565b6106b48161069f565b82525050565b60006020820190506106cf60008301846106ab565b92915050565b600081519050919050565b600082825260208201905092915050565b60005b8381101561070f5780820151818401526020810190506106f4565b8381111561071e576000848401525b50505050565b6000601f19601f8301169050919050565b6000610740826106d5565b61074a81856106e0565b935061075a8185602086016106f1565b61076381610724565b840191505092915050565b600060208201905081810360008301526107888184610735565b905092915050565b7f4e487b7100000000000000000000000000000000000000000000000000000000600052602160045260246000fd5b7f43616e6e6f742055706461746520537461747573000000000000000000000000600082015250565b60006107f56014836106e0565b9150610800826107bf565b602082019050919050565b60006020820190508181036000830152610824816107e8565b9050919050565b7f546869732073636f7265206973206e6f7420686967686572207468616e20746860008201527f652063757272656e7420686967682073636f7265000000000000000000000000602082015250565b60006108876034836106e0565b91506108928261082b565b604082019050919050565b600060208201905081810360008301526108b68161087a565b905091905056fea264697066735822122024b3ebddc0750430d4785befce4aa070d17f21274992741db1073eb506bb335f64736f6c63430008090033",
  "immutableReferences": {},
  "source": "// SPDX-License-Identifier: MIT\npragma solidity 0.8.9;\n\nimport '@openzeppelin/contracts/utils/Address.sol';\nimport '@openzeppelin/contracts/security/ReentrancyGuard.sol';\n\n\n/// @title Compound Ether - CToken which wraps Ether\n/// @notice interface for SmartBank contract to interact with Compound\n/// @dev refer to https://github.com/compound-finance/compound-protocol/blob/master/contracts/CEther.sol for further details\ninterface DodgerBoxGame {\n  function createNewPlayer() external returns(bool);\n  function getStatus() external view returns(string memory);\n  function updateHighScore(uint256 score) external returns (bool) ;\n  function getHighScore() external view returns(uint256);\n}\n\n/// @title A highscore keep for dodgerbox, a 2D game\n/// @author Rashan Smith\n/// @notice You can use this contract only with the 2d game defined in the front end folder\n/// @dev The player's information is stored in a struct\ncontract DodgerBox is DodgerBoxGame, ReentrancyGuard {\n  using Address for address;\n\n  /// @notice A mapper to store all players and their high scores\n  mapping (address => Player) internal highScores;\n\n  /// @notice Owner of the contract\n  address owner = msg.sender;\n\n  /// @notice A struct that defines whether a user is an active player or new\n  enum Status {\n    New, Active\n  }\n\n  /// @notice The struct that contains the high score and status of the player\n  struct Player {\n    uint256 highScore;\n    Status status;\n  }\n\n  /// @notice A modifier that checks to see if the score passed in is greater than the players current high score\n  modifier checkHighScore(uint256 score) {\n    require ((highScores[msg.sender].highScore < score), \"This score is not higher than the current high score\");\n    _;\n  }\n\n  /// @notice Checks if a player's status is New or Active\n  modifier udpateStatus(address _addr) {\n    require ((highScores[msg.sender].status == Status.New || highScores[msg.sender].status == Status.Active), \"Cannot Update Status\");\n    _;\n  }\n\n  /// @notice This creates a new player with the Player Struct\n  function createNewPlayer() external returns(bool) {\n    highScores[msg.sender] = Player({\n      highScore: 0,\n      status: Status.New\n    });\n    return true;\n  }\n\n  /// @notice This gets the status of the current player, returns the status\n  function getStatus() external view returns(string memory){\n    if(highScores[msg.sender].status == Status.New) {\n      return \"New\";\n    } else {\n      if(highScores[msg.sender].status == Status.Active) {\n        return \"Active\";\n      }\n    }\n  }\n\n  /// @notice Updates the player's high score\n  function updateHighScore(uint256 score) external udpateStatus(msg.sender) checkHighScore(score) returns(bool) {\n    if(highScores[msg.sender].highScore == 0){\n      highScores[msg.sender].status = Status.Active;\n    }\n    highScores[msg.sender].highScore = score;\n    return true;\n  }\n\n  /// @notice Returns the player's high score\n  function getHighScore() external view returns(uint256) {\n    return highScores[msg.sender].highScore;\n  }\n\n}\n",
  "sourcePath": "/Users/rsmith/Documents/Consensys_Bootcamp/blockchain-developer-bootcamp-final-project/contracts/DodgerBox.sol",
  "compiler": {
    "name": "solc",
    "version": "0.8.9+commit.e5eed63a.Emscripten.clang"
  },
  "schemaVersion": "3.4.3",
  "updatedAt": "2021-11-28T21:40:59.405Z",
  "networkType": "ethereum",
  "devdoc": {
    "author": "Rashan Smith",
    "details": "The player's information is stored in a struct",
    "kind": "dev",
    "methods": {},
    "title": "A highscore keep for dodgerbox, a 2D game",
    "version": 1
  },
  "userdoc": {
    "kind": "user",
    "methods": {
      "createNewPlayer()": {
        "notice": "This creates a new player with the Player Struct"
      },
      "getHighScore()": {
        "notice": "Returns the player's high score"
      },
      "getStatus()": {
        "notice": "This gets the status of the current player, returns the status"
      },
      "updateHighScore(uint256)": {
        "notice": "Updates the player's high score"
      }
    },
    "notice": "You can use this contract only with the 2d game defined in the front end folder",
    "version": 1
  }
}