{
  "contractName": "DodgerPayments",
  "abi": [
    {
      "inputs": [],
      "stateMutability": "nonpayable",
      "type": "constructor"
    },
    {
      "stateMutability": "payable",
      "type": "fallback",
      "payable": true
    },
    {
      "stateMutability": "payable",
      "type": "receive",
      "payable": true
    },
    {
      "inputs": [],
      "name": "getTotalPayments",
      "outputs": [
        {
          "internalType": "uint256",
          "name": "",
          "type": "uint256"
        }
      ],
      "stateMutability": "view",
      "type": "function",
      "constant": true
    },
    {
      "inputs": [],
      "name": "payment",
      "outputs": [],
      "stateMutability": "payable",
      "type": "function",
      "payable": true
    },
    {
      "inputs": [
        {
          "internalType": "uint256",
          "name": "_amount",
          "type": "uint256"
        }
      ],
      "name": "withdraw",
      "outputs": [],
      "stateMutability": "nonpayable",
      "type": "function"
    }
  ],
  "bytecode": "0x608060405234801561001057600080fd5b5060016000819055506000600f90506000612710905061003d818361008b60201b6102b61790919060201c565b60028190555033600360006101000a81548173ffffffffffffffffffffffffffffffffffffffff021916908373ffffffffffffffffffffffffffffffffffffffff160217905550505061010b565b6000818361009991906100da565b905092915050565b6000819050919050565b7f4e487b7100000000000000000000000000000000000000000000000000000000600052601260045260246000fd5b60006100e5826100a1565b91506100f0836100a1565b925082610100576100ff6100ab565b5b828204905092915050565b61061a8061011a6000396000f3fe6080604052600436106100385760003560e01c80632e1a7d4d1461004157806342f6487a1461006a578063708f29a6146100745761003f565b3661003f57005b005b34801561004d57600080fd5b5061006860048036038101906100639190610307565b61009f565b005b61007261019b565b005b34801561008057600080fd5b506100896102ac565b6040516100969190610343565b60405180910390f35b600360009054906101000a900473ffffffffffffffffffffffffffffffffffffffff1673ffffffffffffffffffffffffffffffffffffffff163373ffffffffffffffffffffffffffffffffffffffff161461012f576040517f08c379a0000000000000000000000000000000000000000000000000000000008152600401610126906103bb565b60405180910390fd5b600360009054906101000a900473ffffffffffffffffffffffffffffffffffffffff1673ffffffffffffffffffffffffffffffffffffffff166108fc829081150290604051600060405180830381858888f19350505050158015610197573d6000803e3d6000fd5b5050565b343373ffffffffffffffffffffffffffffffffffffffff1631106101f4576040517f08c379a00000000000000000000000000000000000000000000000000000000081526004016101eb9061044d565b60405180910390fd5b6002543414610238576040517f08c379a000000000000000000000000000000000000000000000000000000000815260040161022f906104df565b60405180910390fd5b60003490508060015461024b919061052e565b600181905550600360009054906101000a900473ffffffffffffffffffffffffffffffffffffffff1673ffffffffffffffffffffffffffffffffffffffff166108fc349081150290604051600060405180830381858888f193505050505050565b6000600154905090565b600081836102c491906105b3565b905092915050565b600080fd5b6000819050919050565b6102e4816102d1565b81146102ef57600080fd5b50565b600081359050610301816102db565b92915050565b60006020828403121561031d5761031c6102cc565b5b600061032b848285016102f2565b91505092915050565b61033d816102d1565b82525050565b60006020820190506103586000830184610334565b92915050565b600082825260208201905092915050565b7f4e6f7420617574686f72697a65642e0000000000000000000000000000000000600082015250565b60006103a5600f8361035e565b91506103b08261036f565b602082019050919050565b600060208201905081810360008301526103d481610398565b9050919050565b7f506c65617365206d616b652073757265207468617420796f75722062616c616e60008201527f636520686173206174206c6561737420302e30303136204574682e0000000000602082015250565b6000610437603b8361035e565b9150610442826103db565b604082019050919050565b600060208201905081810360008301526104668161042a565b9050919050565b7f506c6561736520656e7465722074686520657861637420616d6f756e74206f6660008201527f20302e30303135204574682e0000000000000000000000000000000000000000602082015250565b60006104c9602c8361035e565b91506104d48261046d565b604082019050919050565b600060208201905081810360008301526104f8816104bc565b9050919050565b7f4e487b7100000000000000000000000000000000000000000000000000000000600052601160045260246000fd5b6000610539826102d1565b9150610544836102d1565b9250827fffffffffffffffffffffffffffffffffffffffffffffffffffffffffffffffff03821115610579576105786104ff565b5b828201905092915050565b7f4e487b7100000000000000000000000000000000000000000000000000000000600052601260045260246000fd5b60006105be826102d1565b91506105c9836102d1565b9250826105d9576105d8610584565b5b82820490509291505056fea2646970667358221220b00b79715d85f6e9715319569218c21fce8c2ea35dfc1a1843119af2bb3b700564736f6c63430008090033",
  "immutableReferences": {},
  "source": "// SPDX-License-Identifier: MIT\npragma solidity ^0.8.4;\n\nimport '@openzeppelin/contracts/utils/Address.sol';\nimport '@openzeppelin/contracts/security/ReentrancyGuard.sol';\nimport '@openzeppelin/contracts/utils/math/SafeMath.sol';\n\ncontract DodgerPayments is ReentrancyGuard {\n  using Address for address;\n  using SafeMath for uint256;\n\n  uint private totalPayments;    // the amount of donations\n  uint cost;\n  address payable owner;\n\n  /// Contract settings\n  constructor() {\n    /// The cost is 0.0015 Eth\n    uint num = 15;\n    uint num2 = 10000;\n    cost = num.div(num2);\n    owner = payable(msg.sender); // setting the contract creator\n  }\n\n  /// @notice Checks if an address is the owner\n  modifier onlyOwner() {\n      require(msg.sender == owner, \"Not authorized.\");\n      _;\n  }\n\n  /// @notice Checks if an address is the owner\n  modifier exactPayment() {\n      require(msg.value == cost, \"Please enter the exact amount of 0.0015 Eth.\");\n      _;\n  }\n\n   /// @notice Checks if an address is the owner\n  modifier hasEnoughFunds() {\n      require(msg.sender.balance < msg.value, \"Please make sure that your balance has at least 0.0016 Eth.\");\n      _;\n  }\n\n  /// Public function to return the amount of donations\n  function getTotalPayments() view public returns(uint) {\n    return totalPayments;\n  }\n\n  /// Public function to make a payment to the owner\n  function payment() public payable hasEnoughFunds() exactPayment()  {\n    uint payment = msg.value;\n    totalPayments = totalPayments + payment;\n    owner.send(msg.value);\n  }\n\n  /// The owner can withdraw money\n  function withdraw(uint _amount) onlyOwner public {\n      owner.transfer(_amount);\n  }   \n\n  ///@dev receive() and fallback() functions to allow the contract to receive ETH and data  \n  receive() external payable {\n  }\n\n  fallback() external payable {\n  }\n}",
  "sourcePath": "/Users/rsmith/Documents/Consensys_Bootcamp/blockchain-developer-bootcamp-final-project/contracts/DodgerPayments.sol",
  "compiler": {
    "name": "solc",
    "version": "0.8.9+commit.e5eed63a.Emscripten.clang"
  },
  "schemaVersion": "3.4.3",
  "updatedAt": "2021-11-28T03:00:32.075Z",
  "networkType": "ethereum",
  "devdoc": {
    "kind": "dev",
    "methods": {},
    "version": 1
  },
  "userdoc": {
    "kind": "user",
    "methods": {
      "constructor": {
        "notice": "Contract settings"
      },
      "getTotalPayments()": {
        "notice": "Public function to return the amount of donations"
      },
      "payment()": {
        "notice": "Public function to make a payment to the owner"
      },
      "withdraw(uint256)": {
        "notice": "The owner can withdraw money"
      }
    },
    "version": 1
  }
}