{
  "contractName": "DodgerBox",
  "abi": [
    {
      "inputs": [],
      "name": "createNewPlayer",
      "outputs": [
        {
          "internalType": "bool",
          "name": "",
          "type": "bool"
        }
      ],
      "stateMutability": "nonpayable",
      "type": "function"
    },
    {
      "inputs": [],
      "name": "getStatus",
      "outputs": [
        {
          "internalType": "string",
          "name": "",
          "type": "string"
        }
      ],
      "stateMutability": "view",
      "type": "function",
      "constant": true
    },
    {
      "inputs": [
        {
          "internalType": "uint256",
          "name": "score",
          "type": "uint256"
        }
      ],
      "name": "updateHighScore",
      "outputs": [
        {
          "internalType": "bool",
          "name": "",
          "type": "bool"
        }
      ],
      "stateMutability": "nonpayable",
      "type": "function"
    },
    {
      "inputs": [],
      "name": "getHighScore",
      "outputs": [
        {
          "internalType": "uint256",
          "name": "",
          "type": "uint256"
        }
      ],
      "stateMutability": "view",
      "type": "function",
      "constant": true
    }
  ],
  "bytecode": "0x608060405234801561001057600080fd5b506108ea806100206000396000f3fe608060405234801561001057600080fd5b506004361061004c5760003560e01c80633824ea31146100515780634cd9673e1461006f5780634e69d5601461009f578063e3910d08146100bd575b600080fd5b6100596100db565b604051610066919061061d565b60405180910390f35b61008960048036038101906100849190610669565b610124565b60405161009691906106b1565b60405180910390f35b6100a76103e2565b6040516100b49190610765565b60405180910390f35b6100c5610557565b6040516100d291906106b1565b60405180910390f35b60008060003373ffffffffffffffffffffffffffffffffffffffff1673ffffffffffffffffffffffffffffffffffffffff16815260200190815260200160002060000154905090565b6000336000600181111561013b5761013a610787565b5b6000803373ffffffffffffffffffffffffffffffffffffffff1673ffffffffffffffffffffffffffffffffffffffff16815260200190815260200160002060010160009054906101000a900460ff16600181111561019c5761019b610787565b5b148061021957506001808111156101b6576101b5610787565b5b6000803373ffffffffffffffffffffffffffffffffffffffff1673ffffffffffffffffffffffffffffffffffffffff16815260200190815260200160002060010160009054906101000a900460ff16600181111561021757610216610787565b5b145b610258576040517f08c379a000000000000000000000000000000000000000000000000000000000815260040161024f90610802565b60405180910390fd5b82806000803373ffffffffffffffffffffffffffffffffffffffff1673ffffffffffffffffffffffffffffffffffffffff16815260200190815260200160002060000154106102dc576040517f08c379a00000000000000000000000000000000000000000000000000000000081526004016102d390610894565b60405180910390fd5b60008060003373ffffffffffffffffffffffffffffffffffffffff1673ffffffffffffffffffffffffffffffffffffffff1681526020019081526020016000206000015414156103915760016000803373ffffffffffffffffffffffffffffffffffffffff1673ffffffffffffffffffffffffffffffffffffffff16815260200190815260200160002060010160006101000a81548160ff0219169083600181111561038b5761038a610787565b5b02179055505b836000803373ffffffffffffffffffffffffffffffffffffffff1673ffffffffffffffffffffffffffffffffffffffff16815260200190815260200160002060000181905550600192505050919050565b6060600060018111156103f8576103f7610787565b5b6000803373ffffffffffffffffffffffffffffffffffffffff1673ffffffffffffffffffffffffffffffffffffffff16815260200190815260200160002060010160009054906101000a900460ff16600181111561045957610458610787565b5b141561049c576040518060400160405280600381526020017f4e657700000000000000000000000000000000000000000000000000000000008152509050610554565b6001808111156104af576104ae610787565b5b6000803373ffffffffffffffffffffffffffffffffffffffff1673ffffffffffffffffffffffffffffffffffffffff16815260200190815260200160002060010160009054906101000a900460ff1660018111156105105761050f610787565b5b1415610553576040518060400160405280600681526020017f41637469766500000000000000000000000000000000000000000000000000008152509050610554565b5b90565b60006040518060400160405280600081526020016000600181111561057f5761057e610787565b5b8152506000803373ffffffffffffffffffffffffffffffffffffffff1673ffffffffffffffffffffffffffffffffffffffff1681526020019081526020016000206000820151816000015560208201518160010160006101000a81548160ff021916908360018111156105f5576105f4610787565b5b02179055509050506001905090565b6000819050919050565b61061781610604565b82525050565b6000602082019050610632600083018461060e565b92915050565b600080fd5b61064681610604565b811461065157600080fd5b50565b6000813590506106638161063d565b92915050565b60006020828403121561067f5761067e610638565b5b600061068d84828501610654565b91505092915050565b60008115159050919050565b6106ab81610696565b82525050565b60006020820190506106c660008301846106a2565b92915050565b600081519050919050565b600082825260208201905092915050565b60005b838110156107065780820151818401526020810190506106eb565b83811115610715576000848401525b50505050565b6000601f19601f8301169050919050565b6000610737826106cc565b61074181856106d7565b93506107518185602086016106e8565b61075a8161071b565b840191505092915050565b6000602082019050818103600083015261077f818461072c565b905092915050565b7f4e487b7100000000000000000000000000000000000000000000000000000000600052602160045260246000fd5b7f43616e6e6f742055706461746520537461747573000000000000000000000000600082015250565b60006107ec6014836106d7565b91506107f7826107b6565b602082019050919050565b6000602082019050818103600083015261081b816107df565b9050919050565b7f546869732073636f7265206973206e6f7420686967686572207468616e20746860008201527f652063757272656e7420686967682073636f7265000000000000000000000000602082015250565b600061087e6034836106d7565b915061088982610822565b604082019050919050565b600060208201905081810360008301526108ad81610871565b905091905056fea2646970667358221220c1f4ed5f65a7b63b44560fdf459e86fbf2c46b4f157f786af0892cdb2b64287064736f6c63430008090033",
  "immutableReferences": {},
  "source": "// SPDX-License-Identifier: MIT\npragma solidity >=0.4.22 <0.9.0;\n\ncontract DodgerBox {\n  mapping (address => Player) internal highScores;\n\n  enum Status {\n    New, Active\n  }\n\n  struct Player {\n    uint highScore;\n    Status status;\n  }\n\n  modifier checkHighScore(uint score) {\n    require ((highScores[msg.sender].highScore < score), \"This score is not higher than the current high score\");\n    _;\n  }\n\n  modifier udpateStatus(address _addr) {\n    require ((highScores[msg.sender].status == Status.New || highScores[msg.sender].status == Status.Active), \"Cannot Update Status\");\n    _;\n  }\n\n  // modifier doesNotExist(address _addr) {\n  //   require ((highScores[msg.sender]), \"Cannot Update Status\");\n  //   _;\n  // }\n\n  function createNewPlayer() public returns(bool) {\n    highScores[msg.sender] = Player({\n      highScore: 0,\n      status: Status.New\n    });\n    return true;\n  }\n\n  function getStatus()  public view returns(string memory){\n    if(highScores[msg.sender].status == Status.New) {\n      return \"New\";\n    } else {\n      if(highScores[msg.sender].status == Status.Active) {\n        return \"Active\";\n      }\n    }\n  }\n\n  function updateHighScore(uint score) public udpateStatus(msg.sender) checkHighScore(score) returns(bool) {\n    if(highScores[msg.sender].highScore == 0){\n      highScores[msg.sender].status = Status.Active;\n    }\n    highScores[msg.sender].highScore = score;\n    return true;\n  }\n\n  function getHighScore() public view returns(uint) {\n    return highScores[msg.sender].highScore;\n  }\n    \n}\n",
  "sourcePath": "/Users/rsmith/Documents/Consensys_Bootcamp/blockchain-developer-bootcamp-final-project/contracts/DodgerBox.sol",
  "compiler": {
    "name": "solc",
    "version": "0.8.9+commit.e5eed63a.Emscripten.clang"
  },
  "schemaVersion": "3.4.3",
  "updatedAt": "2021-11-21T19:39:40.470Z",
  "networkType": "ethereum",
  "devdoc": {
    "kind": "dev",
    "methods": {},
    "version": 1
  },
  "userdoc": {
    "kind": "user",
    "methods": {},
    "version": 1
  }
}