{
  "contractName": "DodgerBox",
  "abi": [
    {
      "inputs": [
        {
          "internalType": "uint256",
          "name": "score",
          "type": "uint256"
        }
      ],
      "name": "createNewPlayer",
      "outputs": [
        {
          "internalType": "bool",
          "name": "",
          "type": "bool"
        }
      ],
      "stateMutability": "nonpayable",
      "type": "function"
    },
    {
      "inputs": [],
      "name": "getStatus",
      "outputs": [
        {
          "internalType": "string",
          "name": "",
          "type": "string"
        }
      ],
      "stateMutability": "view",
      "type": "function"
    },
    {
      "inputs": [
        {
          "internalType": "uint256",
          "name": "score",
          "type": "uint256"
        }
      ],
      "name": "updateHighScore",
      "outputs": [
        {
          "internalType": "bool",
          "name": "",
          "type": "bool"
        }
      ],
      "stateMutability": "nonpayable",
      "type": "function"
    },
    {
      "inputs": [],
      "name": "getHighScore",
      "outputs": [
        {
          "internalType": "uint256",
          "name": "",
          "type": "uint256"
        }
      ],
      "stateMutability": "view",
      "type": "function"
    }
  ],
  "bytecode": "0x608060405233600260006101000a81548173ffffffffffffffffffffffffffffffffffffffff021916908373ffffffffffffffffffffffffffffffffffffffff16021790555034801561005157600080fd5b506001600081905550610906806100696000396000f3fe608060405234801561001057600080fd5b506004361061004c5760003560e01c80632938a8f4146100515780633824ea31146100815780634cd9673e1461009f5780634e69d560146100cf575b600080fd5b61006b6004803603810190610066919061065b565b6100ed565b60405161007891906106a3565b60405180910390f35b61008961019c565b60405161009691906106cd565b60405180910390f35b6100b960048036038101906100b4919061065b565b6101e6565b6040516100c691906106a3565b60405180910390f35b6100d76104a9565b6040516100e49190610781565b60405180910390f35b6000604051806040016040528083815260200160006001811115610114576101136107a3565b5b815250600160003373ffffffffffffffffffffffffffffffffffffffff1673ffffffffffffffffffffffffffffffffffffffff1681526020019081526020016000206000820151816000015560208201518160010160006101000a81548160ff0219169083600181111561018b5761018a6107a3565b5b021790555090505060019050919050565b6000600160003373ffffffffffffffffffffffffffffffffffffffff1673ffffffffffffffffffffffffffffffffffffffff16815260200190815260200160002060000154905090565b600033600060018111156101fd576101fc6107a3565b5b600160003373ffffffffffffffffffffffffffffffffffffffff1673ffffffffffffffffffffffffffffffffffffffff16815260200190815260200160002060010160009054906101000a900460ff16600181111561025f5761025e6107a3565b5b14806102dd5750600180811115610279576102786107a3565b5b600160003373ffffffffffffffffffffffffffffffffffffffff1673ffffffffffffffffffffffffffffffffffffffff16815260200190815260200160002060010160009054906101000a900460ff1660018111156102db576102da6107a3565b5b145b61031c576040517f08c379a00000000000000000000000000000000000000000000000000000000081526004016103139061081e565b60405180910390fd5b8280600160003373ffffffffffffffffffffffffffffffffffffffff1673ffffffffffffffffffffffffffffffffffffffff16815260200190815260200160002060000154106103a1576040517f08c379a0000000000000000000000000000000000000000000000000000000008152600401610398906108b0565b60405180910390fd5b6000600160003373ffffffffffffffffffffffffffffffffffffffff1673ffffffffffffffffffffffffffffffffffffffff1681526020019081526020016000206000015414156104575760018060003373ffffffffffffffffffffffffffffffffffffffff1673ffffffffffffffffffffffffffffffffffffffff16815260200190815260200160002060010160006101000a81548160ff02191690836001811115610451576104506107a3565b5b02179055505b83600160003373ffffffffffffffffffffffffffffffffffffffff1673ffffffffffffffffffffffffffffffffffffffff16815260200190815260200160002060000181905550600192505050919050565b6060600060018111156104bf576104be6107a3565b5b600160003373ffffffffffffffffffffffffffffffffffffffff1673ffffffffffffffffffffffffffffffffffffffff16815260200190815260200160002060010160009054906101000a900460ff166001811115610521576105206107a3565b5b1415610564576040518060400160405280600381526020017f4e65770000000000000000000000000000000000000000000000000000000000815250905061061d565b600180811115610577576105766107a3565b5b600160003373ffffffffffffffffffffffffffffffffffffffff1673ffffffffffffffffffffffffffffffffffffffff16815260200190815260200160002060010160009054906101000a900460ff1660018111156105d9576105d86107a3565b5b141561061c576040518060400160405280600681526020017f4163746976650000000000000000000000000000000000000000000000000000815250905061061d565b5b90565b600080fd5b6000819050919050565b61063881610625565b811461064357600080fd5b50565b6000813590506106558161062f565b92915050565b60006020828403121561067157610670610620565b5b600061067f84828501610646565b91505092915050565b60008115159050919050565b61069d81610688565b82525050565b60006020820190506106b86000830184610694565b92915050565b6106c781610625565b82525050565b60006020820190506106e260008301846106be565b92915050565b600081519050919050565b600082825260208201905092915050565b60005b83811015610722578082015181840152602081019050610707565b83811115610731576000848401525b50505050565b6000601f19601f8301169050919050565b6000610753826106e8565b61075d81856106f3565b935061076d818560208601610704565b61077681610737565b840191505092915050565b6000602082019050818103600083015261079b8184610748565b905092915050565b7f4e487b7100000000000000000000000000000000000000000000000000000000600052602160045260246000fd5b7f43616e6e6f742055706461746520537461747573000000000000000000000000600082015250565b60006108086014836106f3565b9150610813826107d2565b602082019050919050565b60006020820190508181036000830152610837816107fb565b9050919050565b7f546869732073636f7265206973206e6f7420686967686572207468616e20746860008201527f652063757272656e7420686967682073636f7265000000000000000000000000602082015250565b600061089a6034836106f3565b91506108a58261083e565b604082019050919050565b600060208201905081810360008301526108c98161088d565b905091905056fea26469706673582212208b756b9f4be03f4f9fd62f3824a8e2a16577a3f83793ee38e0a2215f4880c13764736f6c63430008090033",
  "immutableReferences": {},
  "source": "// SPDX-License-Identifier: MIT\npragma solidity 0.8.9;\n\nimport '@openzeppelin/contracts/utils/Address.sol';\nimport '@openzeppelin/contracts/security/ReentrancyGuard.sol';\n\n\n/// @title DodgerBoxGame Interface\n/// @author Rashan Smith\n/// @notice interface for DodgerBox main contracy\ninterface DodgerBoxGame {\n  function createNewPlayer(uint256 score) external returns(bool);\n  function getStatus() external view returns(string memory);\n  function updateHighScore(uint256 score) external returns (bool) ;\n  function getHighScore() external view returns(uint256);\n}\n\n/// @title A highscore keep for dodgerbox, a 2D game\n/// @author Rashan Smith\n/// @notice You can use this contract only with the 2d game defined in the front end folder\n/// @dev The player's information is stored in a struct\ncontract DodgerBox is DodgerBoxGame, ReentrancyGuard {\n  using Address for address;\n\n  /// @notice A mapper to store all players and their high scores\n  mapping (address => Player) internal highScores;\n\n  /// @notice Owner of the contract\n  address owner = msg.sender;\n\n  /// @notice A struct that defines whether a user is an active player or new\n  enum Status {\n    New, Active\n  }\n\n  /// @notice The struct that contains the high score and status of the player\n  struct Player {\n    uint256 highScore;\n    Status status;\n  }\n\n  /// @notice A modifier that checks to see if the score passed in is greater than the players current high score\n  modifier checkHighScore(uint256 score) {\n    require ((highScores[msg.sender].highScore < score), \"This score is not higher than the current high score\");\n    _;\n  }\n\n  /// @notice Checks if a player's status is New or Active\n  modifier udpateStatus(address _addr) {\n    require ((highScores[msg.sender].status == Status.New || highScores[msg.sender].status == Status.Active), \"Cannot Update Status\");\n    _;\n  }\n\n  /// @notice This creates a new player with the Player Struct\n  function createNewPlayer(uint256 score) external returns(bool) {\n    highScores[msg.sender] = Player({\n      highScore: score,\n      status: Status.New\n    });\n    return true;\n  }\n\n  /// @notice This gets the status of the current player, returns the status\n  function getStatus() external view returns(string memory){\n    if(highScores[msg.sender].status == Status.New) {\n      return \"New\";\n    } else {\n      if(highScores[msg.sender].status == Status.Active) {\n        return \"Active\";\n      }\n    }\n  }\n\n  /// @notice Updates the player's high score\n  function updateHighScore(uint256 score) external udpateStatus(msg.sender) checkHighScore(score) returns(bool) {\n    if(highScores[msg.sender].highScore == 0){\n      highScores[msg.sender].status = Status.Active;\n    }\n    highScores[msg.sender].highScore = score;\n    return true;\n  }\n\n  /// @notice Returns the player's high score\n  function getHighScore() external view returns(uint256) {\n    return highScores[msg.sender].highScore;\n  }\n\n}\n",
  "sourcePath": "/Users/rsmith/Documents/Consensys_Bootcamp/blockchain-developer-bootcamp-final-project/contracts/DodgerBox.sol",
  "compiler": {
    "name": "solc",
    "version": "0.8.9+commit.e5eed63a.Emscripten.clang"
  },
  "schemaVersion": "3.4.3",
  "updatedAt": "2021-11-29T00:09:20.971Z",
  "devdoc": {
    "author": "Rashan Smith",
    "details": "The player's information is stored in a struct",
    "kind": "dev",
    "methods": {},
    "title": "A highscore keep for dodgerbox, a 2D game",
    "version": 1
  },
  "userdoc": {
    "kind": "user",
    "methods": {
      "createNewPlayer(uint256)": {
        "notice": "This creates a new player with the Player Struct"
      },
      "getHighScore()": {
        "notice": "Returns the player's high score"
      },
      "getStatus()": {
        "notice": "This gets the status of the current player, returns the status"
      },
      "updateHighScore(uint256)": {
        "notice": "Updates the player's high score"
      }
    },
    "notice": "You can use this contract only with the 2d game defined in the front end folder",
    "version": 1
  }
}